:100000000C9454000C9471000C9471000C947100C9
:100010000C9471000C9471000C9471000C9471009C
:100020000C9471000C9471000C9471000C9471008C
:100030000C9471000C9471000C9497020C94710054
:100040000C9471000C9471000C9471000C9471006C
:100050000C9471000C9471000C9471000C9471005C
:100060000C9471000C947100001F000000001F0030
:10007000001F101010101F00001F181818181F0064
:10008000001F1C1C1C1C1F00001F1E1E1E1E1F000C
:10009000001F1F1F1F1F1F0003070F1F0F07030055
:1000A000181C1E1F1E1C180011241FBECFEFD8E005
:1000B000DEBFCDBF11E0A0E0B1E0E6E7FDE002C0A9
:1000C00005900D92A635B107D9F721E0A6E5B1E07C
:1000D00001C01D92A336B207E1F70E94BE020C9444
:1000E000B9060C94000065B1982F9074492F50E028
:1000F00055954795559547955595479555954795E8
:10010000982F9078292F30E0022E232F000C221FE9
:10011000330B000C221F331F962F997F492B242B62
:1001200025B968B1982F9071492F50E055954795A2
:100130005595479555954795982F9072292F30E002
:10014000359527953595279535952795962F997F40
:10015000492B242B28B99BB192609BB99BB191602C
:100160009BB925ED2A95F1F700009BB19E7F9BB9C5
:100170009BB19D7F9BB995ED9A95F1F7000065B114
:1001800020E1829FC0011124AC0140745527559590
:1001900047955595479555954795559547959C0194
:1001A00020783327022E232F000C221F330B000C44
:1001B000221F331F362F397F432B242B25B948B1FB
:1001C0009C012071332735952795359527953595D1
:1001D00027958072992795958795959587959595FB
:1001E0008795942F997F292B822B88B98BB18260B8
:1001F0008BB98BB181608BB985ED8A95F1F70000E1
:100200008BB18E7F8BB98BB18D7F8BB995ED9A9524
:10021000F1F70000089565B1982F9074492F50E0D0
:1002200055954795559547955595479555954795B6
:10023000982F9078292F30E0022E232F000C221FB8
:10024000330B000C221F331F962F997F492B242B31
:1002500025B968B1982F9071492F50E05595479571
:100260005595479555954795982F9072292F30E0D1
:10027000359527953595279535952795962F997F0F
:10028000492B242B28B99BB191609BB9EFE9FFE082
:100290003197F1F700C000009BB19E7F9BB9EFE959
:1002A000FFE03197F1F700C0000065B1F0E18F9FEA
:1002B000C0011124AC0140745527559547955595BB
:1002C000479555954795559547959C012078332737
:1002D000022E232F000C221F330B000C221F331F72
:1002E000362F397F432B242B25B948B19C0120712F
:1002F0003327359527953595279535952795807220
:100300009927959587959595879595958795942F98
:10031000997F292B822B88B98BB181608BB98FE9AA
:100320009FE00197F1F700C000008BB18E7F8BB981
:10033000EFE9FFE03197F1F700C00000089581E098
:100340000E940B0108950F931F93CF93DF930097A3
:1003500069F0D62F8C01C0E007C0F801EC0FF11D49
:1003600080810E947300CF5FCD17B8F3DF91CF91EA
:100370001F910F910895623031F0633031F0613098
:1003800029F4805C03C08C5E01C08C5A80680E9496
:100390000B010895EF92FF920F931F93CF93DF937A
:1003A0007C01862F90E0880F991F880F991F880F76
:1003B000991F8064C0E0D0E00DC0F701EC0FFD1F75
:1003C000149101E0080F0E940B01812F0E9473001D
:1003D0002196802FC830D10580F3DF91CF911F91F6
:1003E0000F91FF90EF900895CF93DF938FE59AEEF2
:1003F0000197F1F700C0000085B1897F85B988B108
:10040000897F88B91BB887B1866087B984B1866057
:1004100084B984B1866084B987B1866087B98AB1AE
:1004200083608AB985B1897F85B988B1866088B9CA
:100430008BB181608BB98FE99FE00197F1F700C024
:1004400000008BB18E7F8BB98FE99FE00197F1F7A8
:1004500000C0000085B1897F85B988B1866088B900
:100460008BB181608BB98FE99FE00197F1F700C0F4
:1004700000008BB18E7F8BB98FE99FE00197F1F778
:1004800000C0000085B1897F85B988B1897F84600B
:1004900088B98BB181608BB98FE99FE00197F1F743
:1004A00000C000008BB18E7F8BB98FE99FE0019770
:1004B000F1F700C0000088E20E940B018CE00E946E
:1004C0000B0160E0C0E00AC0D1E0D60F8C2F90E0B5
:1004D00088599F4F0E94CA01C85F6D2FC034A0F396
:1004E000DF91CF9108952FEF89E698E12150804068
:1004F0009040E1F700C000000E94F4012FEF89E670
:1005000098E1215080409040E1F700C000000E9437
:100510009F0160E082E00E94BB012FEF89E698E135
:10052000215080409040E1F700C0000008951F92E4
:100530000F920FB60F9211248F939F93AF93BF9397
:100540008091570190915801A0915901B0915A01A1
:100550000196A11DB11D8093570190935801A0935E
:100560005901B0935A0186E086BDBF91AF919F912A
:100570008F910F900FBE0F901F901895CF93DF9320
:100580001F92CDB7DEB70E9473020E94B1040E9491
:10059000E602CE0101960E948404811102C08FEF11
:1005A00089832FEF80E792E0215080409040E1F76F
:1005B00000C000006091570170915801809159016D
:1005C00090915A0149810E94EE02E3CF81E080932D
:1005D0005D011092610110925E010895CF92DF9249
:1005E000EF92FF926B017C0180915D018230A9F155
:1005F00018F4813041F0E8C0833009F486C08430BB
:1006000009F4CAC0E1C0413419F482E080935D016D
:1006100080916101813009F4D7C081E0809361014C
:1006200088E580935F0180935C0180E280936201A2
:100630000E949F0160E082E00E94BB016BE085E1C7
:1006400091E00E94A30161E080E00E94BB0160E1B3
:1006500081E291E00E94A301B7C080ED840F8A304F
:1006600030F483E080935D0140935F0105C0443422
:1006700019F481E080935D0180916101823009F479
:10068000A3C0833051F10E949F0160E084E00E948A
:10069000BB0167E082E391E00E94A30161E080E09A
:1006A0000E94BB016CE08AE391E00E94A30180916B
:1006B0005E01811108C0C6010E947C0680915E0126
:1006C0008F5F80935E010E94770664E670E00E946F
:1006D000D20580935B0183E085BD82E08093610158
:1006E00061E08CE00E94BB0180915F010E94730079
:1006F00080915C010E947300809162010E947300EE
:1007000061E08CE00E94BB015FC080ED840F8A3005
:1007100038F540935C0180915F0190E0C097880FAD
:10072000982F990F990F890F480F405340936001FC
:1007300080915B01481304C084E080935D0115C083
:10074000481738F48CE38093620182E080935D0166
:100750000CC08EE38093620182E080935D0105C04E
:10076000443419F481E080935D018091610183300C
:1007700059F183E08093610161E08CE00E94BB014C
:1007800080915F010E94730088E50E94730061E020
:100790008DE00E94BB0118C0809161018430A1F0FE
:1007A00015BC84E080936101C701B6010E945C051D
:1007B0002FEF8BE792E9215080409040E1F700C095
:1007C000000081E080935D01FF90EF90DF90CF907B
:1007D0000895CF93DF93CDB7DEB760970FB6F89447
:1007E000DEBF0FBECDBF2AB123742AB924B1267E45
:1007F00024B92BB12C632BB925B1267E25B92BB199
:100800002F772BB920E1E5E0F1E0DE0111960190B0
:100810000D922A95E1F7E0E067C02AB123742AB966
:1008200024B1267E24B9E11104C024B1206124B989
:100830000FC0E13021F424B1286024B909C0E230AE
:1008400021F424B1216024B903C02AB120682AB957
:100850004B9910C0F0E0EE0FFF1FEE0FFF1F21E0DD
:1008600030E02C0F3D1FE20FF31F2081FC0120839D
:1008700081E041C04D9911C0F0E0EE0FFF1FEE0F77
:10088000FF1F319621E030E02C0F3D1FE20FF31FD8
:100890002081FC01208381E02EC04C9911C0F0E042
:1008A000EE0FFF1FEE0FFF1F329621E030E02C0FFE
:1008B0003D1FE20FF31F2081FC01208381E01BC05C
:1008C0004A9911C0F0E0EE0FFF1FEE0FFF1F3396A5
:1008D00021E030E02C0F3D1FE20FF31F2081FC01CF
:1008E000208381E008C0EF5FE43008F496CF2FEF5B
:1008F000FC01208380E060960FB6F894DEBF0FBE47
:10090000CDBFDF91CF9108950F931F93CF93DF93C6
:100910001F92CDB7DEB78C01CE0101960E94E9038C
:1009200089818F3F31F4809356018093040180E0E8
:1009300012C09091560189130BC090910401891740
:1009400039F0F801808389818093040181E003C03C
:100950008093560180E00F90DF91CF911F910F910E
:10096000089514BC15BC86E086BD82E080936E00BD
:1009700083E085BD789408952F923F924F925F92C5
:100980006F927F928F929F92AF92BF92CF92DF929F
:10099000EF92FF920F931F93CF93DF9300D000D07D
:1009A000CDB7DEB769837A838B839C833A012901B3
:1009B000140128EE33E040E050E00E94E605962E58
:1009C000CA01B9012CE330E040E050E00E94E605A6
:1009D000862E69817A818B819C8120E63AEE40E007
:1009E00050E00E94E6053DEC239F812D1124869561
:1009F0008695869590E3980FF3019083880F982F42
:100A0000990F990F890F281B205DF2012083839E87
:100A1000812D112486958695869590E3980FF8018F
:100A20009083880F982F990F990F890F881A882D16
:100A3000805DF701808399E2999E912D1124929512
:100A40009F7080E3890FF6018083492D50E0BA0141
:100A5000E4E69E9F601971091124CB016AE070E001
:100A60000E94D205605DF5016083939E312D1124B3
:100A7000369536953695330F832F880F880F380FAC
:100A8000892D831B805DF10180830F900F900F9063
:100A90000F90DF91CF911F910F91FF90EF90DF901A
:100AA000CF90BF90AF909F908F907F906F905F900E
:100AB0004F903F902F9008954F925F926F927F9248
:100AC0008F929F92AF92BF92CF92DF92EF92FF925E
:100AD0000F931F93CF93DF93CDB7DEB727970FB652
:100AE000F894DEBF0FBECDBF2B013C010E949F01D9
:100AF00060E084E00E94BB0167E087E491E00E942F
:100B0000A30161E080E00E94BB0165E08FE491E019
:100B10000E94A301CE0107964C0101975C01019749
:100B20006C0101977C018E010D5F1F4F9E012E5FAE
:100B30003F4FAE014F5F5F4FC301B2010E94BC0443
:100B400089810E9473008A810E9473008AE30E9457
:100B500073008B810E9473008C810E9473008AE372
:100B60000E9473008D810E9473008E810E94730029
:100B70008F810E94730027960FB6F894DEBF0FBED8
:100B8000CDBFDF91CF911F910F91FF90EF90DF903C
:100B9000CF90BF90AF909F908F907F906F905F901D
:100BA0004F90089597FB072E16F4009407D077FD19
:100BB00009D00E94170607FC05D03EF49095819558
:100BC0009F4F0895709561957F4F0895A1E21A2E69
:100BD000AA1BBB1BFD010DC0AA1FBB1FEE1FFF1FE1
:100BE000A217B307E407F50720F0A21BB30BE40B31
:100BF000F50B661F771F881F991F1A9469F7609578
:100C00007095809590959B01AC01BD01CF01089531
:100C1000A29FB001B39FC001A39F700D811D11243D
:100C2000911DB29F700D811D1124911D0895AA1B65
:100C3000BB1B51E107C0AA1FBB1FA617B70710F0C7
:100C4000A61BB70B881F991F5A95A9F780959095F9
:100C5000BC01CD0108958F929F92AF92BF92CF9227
:100C6000DF92EF92FF92CF93DF93EC01688179815D
:100C70008A819B81611571058105910521F464E2EA
:100C800079ED8BE597E02DE133EF41E050E00E94F4
:100C9000870649015A019B01AC01A7EAB1E40E9411
:100CA000A6066B017C01ACEEB4EFA50194010E9495
:100CB000B406DC01CB018C0D9D1DAE1DBF1DB7FF21
:100CC00003C00197A109B04888839983AA83BB8395
:100CD0009F77DF91CF91FF90EF90DF90CF90BF9003
:100CE000AF909F908F9008950E942B06089580E00A
:100CF00091E00E942B060895A0E0B0E080930001EF
:100D000090930101A0930201B09303010895052E71
:100D100097FB1EF400940E949E0657FD07D00E9488
:100D2000E60507FC03D04EF40C949E0650954095C2
:100D3000309521953F4F4F4F5F4F08959095809587
:100D4000709561957F4F8F4F9F4F08950E940806C1
:100D5000A59F900DB49F900DA49F800D911D11240F
:100D60000895B7FF0C94A6060E94A606821B930B5B
:060D70000895F894FFCF86
:100D760001000000FF31323341343536423738390D
:100D8600432A3023444269656E76656E69646F2135
:100D960000502F204A554741522050554C5345206C
:100DA60041004A5547414E444F00494E475245532C
:100DB60045204E554D3A0047414E41444F5200544E
:060DC600494D453A000012
:00000001FF
