:100000000C9454000C9471000C9471000C947100C9
:100010000C9471000C9471000C9471000C9471009C
:100020000C9471000C9471000C9471000C9471008C
:100030000C9471000C9471000C94A6020C94710045
:100040000C9471000C9471000C9471000C9471006C
:100050000C9471000C9471000C9471000C9471005C
:100060000C9471000C947100001F000000001F0030
:10007000001F101010101F00001F181818181F0064
:10008000001F1C1C1C1C1F00001F1E1E1E1E1F000C
:10009000001F1F1F1F1F1F0003070F1F0F07030055
:1000A000181C1E1F1E1C180011241FBECFEFD8E005
:1000B000DEBFCDBF11E0A0E0B1E0E8E6FCE002C0A9
:1000C00005900D92A635B107D9F721E0A6E5B1E07C
:1000D00001C01D92A936B207E1F70E9463040C9497
:1000E00032060C94000065B1982F9074492F50E0AF
:1000F00055954795559547955595479555954795E8
:10010000982F9078292F30E0022E232F000C221FE9
:10011000330B000C221F331F962F997F492B242B62
:1001200025B968B1982F9071492F50E055954795A2
:100130005595479555954795982F9072292F30E002
:10014000359527953595279535952795962F997F40
:10015000492B242B28B99BB192609BB99BB191602C
:100160009BB925ED2A95F1F700009BB19E7F9BB9C5
:100170009BB19D7F9BB995ED9A95F1F7000065B114
:1001800020E1829FC0011124AC0140745527559590
:1001900047955595479555954795559547959C0194
:1001A00020783327022E232F000C221F330B000C44
:1001B000221F331F362F397F432B242B25B948B1FB
:1001C0009C012071332735952795359527953595D1
:1001D00027958072992795958795959587959595FB
:1001E0008795942F997F292B822B88B98BB18260B8
:1001F0008BB98BB181608BB985ED8A95F1F70000E1
:100200008BB18E7F8BB98BB18D7F8BB995ED9A9524
:10021000F1F70000089565B1982F9074492F50E0D0
:1002200055954795559547955595479555954795B6
:10023000982F9078292F30E0022E232F000C221FB8
:10024000330B000C221F331F962F997F492B242B31
:1002500025B968B1982F9071492F50E05595479571
:100260005595479555954795982F9072292F30E0D1
:10027000359527953595279535952795962F997F0F
:10028000492B242B28B99BB191609BB9EFE9FFE082
:100290003197F1F700C000009BB19E7F9BB9EFE959
:1002A000FFE03197F1F700C0000065B1F0E18F9FEA
:1002B000C0011124AC0140745527559547955595BB
:1002C000479555954795559547959C012078332737
:1002D000022E232F000C221F330B000C221F331F72
:1002E000362F397F432B242B25B948B19C0120712F
:1002F0003327359527953595279535952795807220
:100300009927959587959595879595958795942F98
:10031000997F292B822B88B98BB181608BB98FE9AA
:100320009FE00197F1F700C000008BB18E7F8BB981
:10033000EFE9FFE03197F1F700C00000089581E098
:100340000E940B0108950F931F93CF93DF930097A3
:1003500069F0D62F8C01C0E007C0F801EC0FF11D49
:1003600080810E947300CF5FCD17B8F3DF91CF91EA
:100370001F910F910895623031F0633031F0613098
:1003800029F4805C03C08C5E01C08C5A80680E9496
:100390000B010895EF92FF920F931F93CF93DF937A
:1003A0007C01862F90E0880F991F880F991F880F76
:1003B000991F8064C0E0D0E00DC0F701EC0FFD1F75
:1003C000149101E0080F0E940B01812F0E9473001D
:1003D0002196802FC830D10580F3DF91CF911F91F6
:1003E0000F91FF90EF900895CF93DF938FE59AEEF2
:1003F0000197F1F700C0000085B1897F85B988B108
:10040000897F88B91BB887B1866087B984B1866057
:1004100084B984B1866084B987B1866087B98AB1AE
:1004200083608AB985B1897F85B988B1866088B9CA
:100430008BB181608BB98FE99FE00197F1F700C024
:1004400000008BB18E7F8BB98FE99FE00197F1F7A8
:1004500000C0000085B1897F85B988B1866088B900
:100460008BB181608BB98FE99FE00197F1F700C0F4
:1004700000008BB18E7F8BB98FE99FE00197F1F778
:1004800000C0000085B1897F85B988B1897F84600B
:1004900088B98BB181608BB98FE99FE00197F1F743
:1004A00000C000008BB18E7F8BB98FE99FE0019770
:1004B000F1F700C0000088E20E940B018CE00E946E
:1004C0000B0160E0C0E00AC0D1E0D60F8C2F90E0B5
:1004D00088599F4F0E94CA01C85F6D2FC034A0F396
:1004E000DF91CF9108952FEF89E698E12150804068
:1004F0009040E1F700C000000E94F4012FEF89E670
:1005000098E1215080409040E1F700C000000E9437
:100510009F0160E082E00E94BB012FEF89E698E135
:10052000215080409040E1F700C00000089514BCC5
:1005300015BC86E086BD82E080936E0078940895B5
:1005400081E080935E011092670108951F920F92DF
:100550000FB60F9211248F939F93AF93BF93809107
:10056000570190915801A0915901B0915A010196FB
:10057000A11DB11D8093570190935801A09359017B
:10058000B0935A0186E086BDBF91AF919F918F9144
:100590000F900FBE0F901F901895CF92DF92EF92A1
:1005A000FF92CF93DF93C0905701D0905801E09015
:1005B0005901F0905A01C701B60128EE33E040E03E
:1005C00050E00E945F05C62FCA01B9012CE330E05C
:1005D00040E050E00E945F05D62FC701B60120E63B
:1005E0003AEE40E050E00E945F059DEC299F812D8E
:1005F000112486958695869530E3380F30936401F3
:10060000880F382F330F330F830F281B205D209363
:100610005F01D99F812D112486958695869520E3CB
:10062000280F20936001880F282F220F220F820F9E
:10063000D81BD05DD0936301C99F912D112496954D
:1006400096959695990F892F880F880F980F8C2F64
:10065000891B805D8093650129E2C29F212D1124B1
:1006600022952F7080E3820F809361018C2F90E0A0
:1006700034E6239F8019910911246AE070E00E94FA
:100680004B05605D60935C01DF91CF91FF90EF902F
:10069000DF90CF90089590915E019230E9F118F4C7
:1006A000913041F00895933009F47CC0943009F4FE
:1006B000BCC00895813419F482E080935E0180917A
:1006C0006701813009F4FEC081E0809367010E94D8
:1006D000F00564E670E00E944B0580935B0188E5BD
:1006E0008093620180935D0180E2809368010E94A3
:1006F0009F0160E080E00E94BB016BE085E191E03A
:100700000E94A30161E080E00E94BB0160E181E200
:1007100091E00E94A301089590ED980F9A3028F47B
:1007200093E090935E018093620180916701823033
:1007300009F4C8C08330F1F00E949F0160E084E0BA
:100740000E94BB0167E082E391E00E94A30161E0A7
:1007500080E00E94BB016CE08AE391E00E94A3016B
:1007600010925701109258011092590110925A019B
:1007700083E085BD82E08093670161E08CE00E94A8
:10078000BB01809162010E94730080915D010E9413
:100790007300809168010E94730061E08CE00E9408
:1007A000BB01089590ED980F9A3038F580935D0164
:1007B0002091620130E020533109220F922F990FCE
:1007C000990F290F820F80538093660190915B01EE
:1007D000891304C084E080935E010FC0891738F448
:1007E0008CE38093680182E080935E0106C08EE313
:1007F0008093680182E080935E018091670183307D
:1008000009F460C083E08093670161E08CE00E949E
:10081000BB01809162010E94730088E50E94730011
:1008200061E08DE00E94BB010895809167018430F2
:1008300009F448C015BC84E0809367010E949F01C1
:1008400060E084E00E94BB0167E087E491E00E94E1
:10085000A30161E080E00E94BB0165E08FE491E0CC
:100860000E94A3010E94CD02809164010E94730046
:1008700080915F010E9473008AE30E94730080915F
:1008800060010E947300809163010E9473008AE3FB
:100890000E947300809161010E94730080915C014D
:1008A0000E947300809165010E9473002FEF8BE717
:1008B00092E9215080409040E1F700C0000081E0C3
:1008C00080935E010895CF93DF931F92CDB7DEB77B
:1008D0000E9473020E9497020E94A002CE0101961C
:1008E0000E941E05811102C08FEF89832FEF80E7E0
:1008F00092E0215080409040E1F700C000008981E3
:100900000E944B03EBCFCF93DF93CDB7DEB7609759
:100910000FB6F894DEBF0FBECDBF2AB123742AB93B
:1009200024B1267E24B92BB12C632BB925B1267EA8
:1009300025B92BB12F772BB920E1E5E0F1E0DE01FD
:10094000119601900D922A95E1F7E0E067C02AB177
:1009500023742AB924B1267E24B9E11104C024B13C
:10096000206124B90FC0E13021F424B1286024B9FA
:1009700009C0E23021F424B1216024B903C02AB1B6
:1009800020682AB94B9910C0F0E0EE0FFF1FEE0F60
:10099000FF1F21E030E02C0F3D1FE20FF31F2081ED
:1009A000FC01208381E041C04D9911C0F0E0EE0FC1
:1009B000FF1FEE0FFF1F319621E030E02C0F3D1F8F
:1009C000E20FF31F2081FC01208381E02EC04C99AF
:1009D00011C0F0E0EE0FFF1FEE0FFF1F329621E077
:1009E00030E02C0F3D1FE20FF31F2081FC0120831C
:1009F00081E01BC04A9911C0F0E0EE0FFF1FEE0F1F
:100A0000FF1F339621E030E02C0F3D1FE20FF31F54
:100A10002081FC01208381E008C0EF5FE43008F40E
:100A200096CF2FEFFC01208380E060960FB6F894FC
:100A3000DEBF0FBECDBFDF91CF9108950F931F93FF
:100A4000CF93DF931F92CDB7DEB78C01CE01019615
:100A50000E94830489818F3F31F4809356018093F3
:100A6000040180E012C09091560189130BC090914F
:100A70000401891739F0F80180838981809304018A
:100A800081E003C08093560180E00F90DF91CF9109
:100A90001F910F91089597FB072E16F4009407D02D
:100AA00077FD09D00E94900507FC05D03EF4909593
:100AB00081959F4F0895709561957F4F0895A1E2AC
:100AC0001A2EAA1BBB1BFD010DC0AA1FBB1FEE1FC8
:100AD000FF1FA217B307E407F50720F0A21BB30B13
:100AE000E40BF50B661F771F881F991F1A9469F78F
:100AF00060957095809590959B01AC01BD01CF01EB
:100B00000895A29FB001B39FC001A39F700D811DE6
:100B10001124911DB29F700D811D1124911D089506
:100B2000AA1BBB1B51E107C0AA1FBB1FA617B70713
:100B300010F0A61BB70B881F991F5A95A9F780952F
:100B40009095BC01CD0108958F929F92AF92BF9274
:100B5000CF92DF92EF92FF92CF93DF93EC01688107
:100B600079818A819B81611571058105910521F447
:100B700064E279ED8BE597E02DE133EF41E050E061
:100B80000E94000649015A019B01AC01A7EAB1E4A9
:100B90000E941F066B017C01ACEEB4EFA50194012D
:100BA0000E942D06DC01CB018C0D9D1DAE1DBF1DCD
:100BB000B7FF03C00197A109B04888839983AA832E
:100BC000BB839F77DF91CF91FF90EF90DF90CF9025
:100BD000BF90AF909F908F9008950E94A4050895B4
:100BE00080E091E00E94A4050895A0E0B0E0809329
:100BF000000190930101A0930201B09303010895B5
:100C0000052E97FB1EF400940E94170657FD07D08F
:100C10000E945F0507FC03D04EF40C941706509514
:100C20004095309521953F4F4F4F5F4F08959095D8
:100C30008095709561957F4F8F4F9F4F08950E94CB
:100C40008105A59F900DB49F900DA49F800D911DCF
:100C500011240895B7FF0C941F060E941F06821BE3
:080C6000930B0895F894FFCFF7
:100C680001000000FF31323341343536423738391C
:100C7800432A3023444269656E76656E69646F2144
:100C880000502F204A554741522050554C5345207B
:100C980041004A5547414E444F00494E475245533B
:100CA80045204E554D3A0047414E41444F5200545D
:060CB800494D453A000021
:00000001FF
