S01700004763634170706C69636174696F6E312E737265635B
S11300000C9434000C9446000C9446000C94460066
S11300100C9446000C9446000C9446000C94460044
S11300200C9446000C9446000C9446000C94460034
S11300300C9446000C9446000C9446000C94460024
S11300400C9446000C9446000C9446000C94460014
S11300500C9446000C9446000C9446000C94460004
S11300600C9446000C94460011241FBECFEFD8E038
S1130070DEBFCDBF21E0A0E0B1E001C01D92A330FE
S1130080B207E1F70E94B0000C94E3000C94000066
S1130090489B08C020910201211104C081E0809393
S11300A002010895489917C020910201213099F462
S11300B0FC01208130E02F5F3F4F217030783323E3
S11300C034F4215031092E6F3F6F2F5F3F4FFC01F5
S11300D02083109202010895811125C040910101ED
S11300E081E090E0BC01042E02C0660F771F0A94E1
S11300F0E2F727E030E0241B310902C0880F991F82
S11301002A95E2F7862B85B98091010190E001964A
S113011083709078992324F401978C6F9F6F0196D4
S11301208093010108958091000127E030E0281BAD
S1130130310981E090E002C0880F991F2A95E2F707
S113014085B98091000190E0019687709078992399
S113015024F40197886F9F6F01968093000108959E
S1130160CF93DF931F92CDB7DEB719828FEF84B997
S113017015B88AB18E7F8AB989B18E7F89B910E0AA
S1130180111103C089810E946C0089E2189F812D9E
S11301901124869586958695912F22E3829F901946
S11301A01124911104C0CE0101960E944800193F08
S11301B011F01F5F01C010E08FEC97E00197F1F799
S10D01C000C00000DDCFF894FFCF6B
S9030000FC
